{"abi":[{"type":"constructor","inputs":[{"name":"_poolManager","type":"address","internalType":"contract IPoolManager"},{"name":"_securityMiddleware","type":"address","internalType":"address"},{"name":"_guardianRegistry","type":"address","internalType":"address"}],"stateMutability":"nonpayable"},{"type":"function","name":"admin","inputs":[],"outputs":[{"name":"","type":"address","internalType":"address"}],"stateMutability":"view"},{"type":"function","name":"afterAddLiquidity","inputs":[{"name":"","type":"address","internalType":"address"},{"name":"","type":"tuple","internalType":"struct PoolKey","components":[{"name":"currency0","type":"address","internalType":"Currency"},{"name":"currency1","type":"address","internalType":"Currency"},{"name":"fee","type":"uint24","internalType":"uint24"},{"name":"tickSpacing","type":"int24","internalType":"int24"},{"name":"hooks","type":"address","internalType":"contract IHooks"}]},{"name":"","type":"tuple","internalType":"struct ModifyLiquidityParams","components":[{"name":"tickLower","type":"int24","internalType":"int24"},{"name":"tickUpper","type":"int24","internalType":"int24"},{"name":"liquidityDelta","type":"int256","internalType":"int256"},{"name":"salt","type":"bytes32","internalType":"bytes32"}]},{"name":"","type":"int256","internalType":"BalanceDelta"},{"name":"","type":"int256","internalType":"BalanceDelta"},{"name":"","type":"bytes","internalType":"bytes"}],"outputs":[{"name":"","type":"bytes4","internalType":"bytes4"},{"name":"","type":"int256","internalType":"BalanceDelta"}],"stateMutability":"nonpayable"},{"type":"function","name":"afterDonate","inputs":[{"name":"","type":"address","internalType":"address"},{"name":"","type":"tuple","internalType":"struct PoolKey","components":[{"name":"currency0","type":"address","internalType":"Currency"},{"name":"currency1","type":"address","internalType":"Currency"},{"name":"fee","type":"uint24","internalType":"uint24"},{"name":"tickSpacing","type":"int24","internalType":"int24"},{"name":"hooks","type":"address","internalType":"contract IHooks"}]},{"name":"","type":"uint256","internalType":"uint256"},{"name":"","type":"uint256","internalType":"uint256"},{"name":"","type":"bytes","internalType":"bytes"}],"outputs":[{"name":"","type":"bytes4","internalType":"bytes4"}],"stateMutability":"nonpayable"},{"type":"function","name":"afterInitialize","inputs":[{"name":"","type":"address","internalType":"address"},{"name":"","type":"tuple","internalType":"struct PoolKey","components":[{"name":"currency0","type":"address","internalType":"Currency"},{"name":"currency1","type":"address","internalType":"Currency"},{"name":"fee","type":"uint24","internalType":"uint24"},{"name":"tickSpacing","type":"int24","internalType":"int24"},{"name":"hooks","type":"address","internalType":"contract IHooks"}]},{"name":"","type":"uint160","internalType":"uint160"},{"name":"","type":"int24","internalType":"int24"}],"outputs":[{"name":"","type":"bytes4","internalType":"bytes4"}],"stateMutability":"nonpayable"},{"type":"function","name":"afterRemoveLiquidity","inputs":[{"name":"","type":"address","internalType":"address"},{"name":"","type":"tuple","internalType":"struct PoolKey","components":[{"name":"currency0","type":"address","internalType":"Currency"},{"name":"currency1","type":"address","internalType":"Currency"},{"name":"fee","type":"uint24","internalType":"uint24"},{"name":"tickSpacing","type":"int24","internalType":"int24"},{"name":"hooks","type":"address","internalType":"contract IHooks"}]},{"name":"","type":"tuple","internalType":"struct ModifyLiquidityParams","components":[{"name":"tickLower","type":"int24","internalType":"int24"},{"name":"tickUpper","type":"int24","internalType":"int24"},{"name":"liquidityDelta","type":"int256","internalType":"int256"},{"name":"salt","type":"bytes32","internalType":"bytes32"}]},{"name":"","type":"int256","internalType":"BalanceDelta"},{"name":"","type":"int256","internalType":"BalanceDelta"},{"name":"","type":"bytes","internalType":"bytes"}],"outputs":[{"name":"","type":"bytes4","internalType":"bytes4"},{"name":"","type":"int256","internalType":"BalanceDelta"}],"stateMutability":"nonpayable"},{"type":"function","name":"afterSwap","inputs":[{"name":"sender","type":"address","internalType":"address"},{"name":"key","type":"tuple","internalType":"struct PoolKey","components":[{"name":"currency0","type":"address","internalType":"Currency"},{"name":"currency1","type":"address","internalType":"Currency"},{"name":"fee","type":"uint24","internalType":"uint24"},{"name":"tickSpacing","type":"int24","internalType":"int24"},{"name":"hooks","type":"address","internalType":"contract IHooks"}]},{"name":"params","type":"tuple","internalType":"struct SwapParams","components":[{"name":"zeroForOne","type":"bool","internalType":"bool"},{"name":"amountSpecified","type":"int256","internalType":"int256"},{"name":"sqrtPriceLimitX96","type":"uint160","internalType":"uint160"}]},{"name":"","type":"int256","internalType":"BalanceDelta"},{"name":"","type":"bytes","internalType":"bytes"}],"outputs":[{"name":"","type":"bytes4","internalType":"bytes4"},{"name":"","type":"int128","internalType":"int128"}],"stateMutability":"nonpayable"},{"type":"function","name":"beforeAddLiquidity","inputs":[{"name":"sender","type":"address","internalType":"address"},{"name":"key","type":"tuple","internalType":"struct PoolKey","components":[{"name":"currency0","type":"address","internalType":"Currency"},{"name":"currency1","type":"address","internalType":"Currency"},{"name":"fee","type":"uint24","internalType":"uint24"},{"name":"tickSpacing","type":"int24","internalType":"int24"},{"name":"hooks","type":"address","internalType":"contract IHooks"}]},{"name":"","type":"tuple","internalType":"struct ModifyLiquidityParams","components":[{"name":"tickLower","type":"int24","internalType":"int24"},{"name":"tickUpper","type":"int24","internalType":"int24"},{"name":"liquidityDelta","type":"int256","internalType":"int256"},{"name":"salt","type":"bytes32","internalType":"bytes32"}]},{"name":"","type":"bytes","internalType":"bytes"}],"outputs":[{"name":"","type":"bytes4","internalType":"bytes4"}],"stateMutability":"nonpayable"},{"type":"function","name":"beforeDonate","inputs":[{"name":"","type":"address","internalType":"address"},{"name":"","type":"tuple","internalType":"struct PoolKey","components":[{"name":"currency0","type":"address","internalType":"Currency"},{"name":"currency1","type":"address","internalType":"Currency"},{"name":"fee","type":"uint24","internalType":"uint24"},{"name":"tickSpacing","type":"int24","internalType":"int24"},{"name":"hooks","type":"address","internalType":"contract IHooks"}]},{"name":"","type":"uint256","internalType":"uint256"},{"name":"","type":"uint256","internalType":"uint256"},{"name":"","type":"bytes","internalType":"bytes"}],"outputs":[{"name":"","type":"bytes4","internalType":"bytes4"}],"stateMutability":"nonpayable"},{"type":"function","name":"beforeInitialize","inputs":[{"name":"","type":"address","internalType":"address"},{"name":"key","type":"tuple","internalType":"struct PoolKey","components":[{"name":"currency0","type":"address","internalType":"Currency"},{"name":"currency1","type":"address","internalType":"Currency"},{"name":"fee","type":"uint24","internalType":"uint24"},{"name":"tickSpacing","type":"int24","internalType":"int24"},{"name":"hooks","type":"address","internalType":"contract IHooks"}]},{"name":"","type":"uint160","internalType":"uint160"}],"outputs":[{"name":"","type":"bytes4","internalType":"bytes4"}],"stateMutability":"nonpayable"},{"type":"function","name":"beforeRemoveLiquidity","inputs":[{"name":"","type":"address","internalType":"address"},{"name":"","type":"tuple","internalType":"struct PoolKey","components":[{"name":"currency0","type":"address","internalType":"Currency"},{"name":"currency1","type":"address","internalType":"Currency"},{"name":"fee","type":"uint24","internalType":"uint24"},{"name":"tickSpacing","type":"int24","internalType":"int24"},{"name":"hooks","type":"address","internalType":"contract IHooks"}]},{"name":"","type":"tuple","internalType":"struct ModifyLiquidityParams","components":[{"name":"tickLower","type":"int24","internalType":"int24"},{"name":"tickUpper","type":"int24","internalType":"int24"},{"name":"liquidityDelta","type":"int256","internalType":"int256"},{"name":"salt","type":"bytes32","internalType":"bytes32"}]},{"name":"","type":"bytes","internalType":"bytes"}],"outputs":[{"name":"","type":"bytes4","internalType":"bytes4"}],"stateMutability":"nonpayable"},{"type":"function","name":"beforeSwap","inputs":[{"name":"sender","type":"address","internalType":"address"},{"name":"key","type":"tuple","internalType":"struct PoolKey","components":[{"name":"currency0","type":"address","internalType":"Currency"},{"name":"currency1","type":"address","internalType":"Currency"},{"name":"fee","type":"uint24","internalType":"uint24"},{"name":"tickSpacing","type":"int24","internalType":"int24"},{"name":"hooks","type":"address","internalType":"contract IHooks"}]},{"name":"params","type":"tuple","internalType":"struct SwapParams","components":[{"name":"zeroForOne","type":"bool","internalType":"bool"},{"name":"amountSpecified","type":"int256","internalType":"int256"},{"name":"sqrtPriceLimitX96","type":"uint160","internalType":"uint160"}]},{"name":"","type":"bytes","internalType":"bytes"}],"outputs":[{"name":"","type":"bytes4","internalType":"bytes4"},{"name":"","type":"int256","internalType":"BeforeSwapDelta"},{"name":"","type":"uint24","internalType":"uint24"}],"stateMutability":"nonpayable"},{"type":"function","name":"canSwap","inputs":[{"name":"sender","type":"address","internalType":"address"}],"outputs":[{"name":"allowed","type":"bool","internalType":"bool"},{"name":"reason","type":"string","internalType":"string"}],"stateMutability":"view"},{"type":"function","name":"defaultLargeSwapThreshold","inputs":[],"outputs":[{"name":"","type":"uint256","internalType":"uint256"}],"stateMutability":"view"},{"type":"function","name":"ensSecurityProfile","inputs":[],"outputs":[{"name":"","type":"address","internalType":"address"}],"stateMutability":"view"},{"type":"function","name":"getHookPermissions","inputs":[],"outputs":[{"name":"","type":"tuple","internalType":"struct Hooks.Permissions","components":[{"name":"beforeInitialize","type":"bool","internalType":"bool"},{"name":"afterInitialize","type":"bool","internalType":"bool"},{"name":"beforeAddLiquidity","type":"bool","internalType":"bool"},{"name":"afterAddLiquidity","type":"bool","internalType":"bool"},{"name":"beforeRemoveLiquidity","type":"bool","internalType":"bool"},{"name":"afterRemoveLiquidity","type":"bool","internalType":"bool"},{"name":"beforeSwap","type":"bool","internalType":"bool"},{"name":"afterSwap","type":"bool","internalType":"bool"},{"name":"beforeDonate","type":"bool","internalType":"bool"},{"name":"afterDonate","type":"bool","internalType":"bool"},{"name":"beforeSwapReturnDelta","type":"bool","internalType":"bool"},{"name":"afterSwapReturnDelta","type":"bool","internalType":"bool"},{"name":"afterAddLiquidityReturnDelta","type":"bool","internalType":"bool"},{"name":"afterRemoveLiquidityReturnDelta","type":"bool","internalType":"bool"}]}],"stateMutability":"pure"},{"type":"function","name":"getPoolStats","inputs":[{"name":"poolId","type":"bytes32","internalType":"PoolId"}],"outputs":[{"name":"registered","type":"bool","internalType":"bool"},{"name":"totalVolume","type":"uint256","internalType":"uint256"},{"name":"swapCount","type":"uint256","internalType":"uint256"}],"stateMutability":"view"},{"type":"function","name":"getUserLargeSwapCount","inputs":[{"name":"user","type":"address","internalType":"address"}],"outputs":[{"name":"","type":"uint256","internalType":"uint256"}],"stateMutability":"view"},{"type":"function","name":"getUserSecuritySettings","inputs":[{"name":"user","type":"address","internalType":"address"}],"outputs":[{"name":"effectiveThreshold","type":"uint256","internalType":"uint256"},{"name":"ensThreshold","type":"uint256","internalType":"uint256"},{"name":"ensDelay","type":"uint256","internalType":"uint256"},{"name":"ensMode","type":"uint8","internalType":"uint8"},{"name":"hasENSProfile","type":"bool","internalType":"bool"}],"stateMutability":"view"},{"type":"function","name":"getUserThresholdExceedances","inputs":[{"name":"user","type":"address","internalType":"address"}],"outputs":[{"name":"","type":"uint256","internalType":"uint256"}],"stateMutability":"view"},{"type":"function","name":"guardianRegistry","inputs":[],"outputs":[{"name":"","type":"address","internalType":"address"}],"stateMutability":"view"},{"type":"function","name":"poolManager","inputs":[],"outputs":[{"name":"","type":"address","internalType":"contract IPoolManager"}],"stateMutability":"view"},{"type":"function","name":"poolSwapCount","inputs":[{"name":"","type":"bytes32","internalType":"PoolId"}],"outputs":[{"name":"","type":"uint256","internalType":"uint256"}],"stateMutability":"view"},{"type":"function","name":"poolSwapVolume","inputs":[{"name":"","type":"bytes32","internalType":"PoolId"}],"outputs":[{"name":"","type":"uint256","internalType":"uint256"}],"stateMutability":"view"},{"type":"function","name":"registeredPools","inputs":[{"name":"","type":"bytes32","internalType":"PoolId"}],"outputs":[{"name":"","type":"bool","internalType":"bool"}],"stateMutability":"view"},{"type":"function","name":"securityMiddleware","inputs":[],"outputs":[{"name":"","type":"address","internalType":"address"}],"stateMutability":"view"},{"type":"function","name":"setAdmin","inputs":[{"name":"newAdmin","type":"address","internalType":"address"}],"outputs":[],"stateMutability":"nonpayable"},{"type":"function","name":"setDefaultLargeSwapThreshold","inputs":[{"name":"newThreshold","type":"uint256","internalType":"uint256"}],"outputs":[],"stateMutability":"nonpayable"},{"type":"function","name":"setENSSecurityProfile","inputs":[{"name":"_ensSecurityProfile","type":"address","internalType":"address"}],"outputs":[],"stateMutability":"nonpayable"},{"type":"function","name":"userLargeSwapCount","inputs":[{"name":"","type":"address","internalType":"address"}],"outputs":[{"name":"","type":"uint256","internalType":"uint256"}],"stateMutability":"view"},{"type":"function","name":"userThresholdExceedances","inputs":[{"name":"","type":"address","internalType":"address"}],"outputs":[{"name":"","type":"uint256","internalType":"uint256"}],"stateMutability":"view"},{"type":"event","name":"ENSProfileApplied","inputs":[{"name":"sender","type":"address","indexed":true,"internalType":"address"},{"name":"threshold","type":"uint256","indexed":false,"internalType":"uint256"},{"name":"mode","type":"uint8","indexed":false,"internalType":"uint8"},{"name":"hasProfile","type":"bool","indexed":false,"internalType":"bool"}],"anonymous":false},{"type":"event","name":"ENSThresholdExceeded","inputs":[{"name":"poolId","type":"bytes32","indexed":true,"internalType":"PoolId"},{"name":"sender","type":"address","indexed":true,"internalType":"address"},{"name":"amount","type":"uint256","indexed":false,"internalType":"uint256"},{"name":"userThreshold","type":"uint256","indexed":false,"internalType":"uint256"}],"anonymous":false},{"type":"event","name":"ENSWhitelistBlocked","inputs":[{"name":"poolId","type":"bytes32","indexed":true,"internalType":"PoolId"},{"name":"sender","type":"address","indexed":true,"internalType":"address"},{"name":"target","type":"address","indexed":false,"internalType":"address"},{"name":"reason","type":"string","indexed":false,"internalType":"string"}],"anonymous":false},{"type":"event","name":"LargeSwapDetected","inputs":[{"name":"poolId","type":"bytes32","indexed":true,"internalType":"PoolId"},{"name":"sender","type":"address","indexed":true,"internalType":"address"},{"name":"amountSpecified","type":"int256","indexed":false,"internalType":"int256"},{"name":"estimatedValueUSD","type":"uint256","indexed":false,"internalType":"uint256"}],"anonymous":false},{"type":"event","name":"LiquidityBlocked","inputs":[{"name":"poolId","type":"bytes32","indexed":true,"internalType":"PoolId"},{"name":"provider","type":"address","indexed":true,"internalType":"address"},{"name":"reason","type":"string","indexed":false,"internalType":"string"}],"anonymous":false},{"type":"event","name":"PoolRegistered","inputs":[{"name":"poolId","type":"bytes32","indexed":true,"internalType":"PoolId"},{"name":"token0","type":"address","indexed":false,"internalType":"address"},{"name":"token1","type":"address","indexed":false,"internalType":"address"}],"anonymous":false},{"type":"event","name":"SwapBlocked","inputs":[{"name":"poolId","type":"bytes32","indexed":true,"internalType":"PoolId"},{"name":"sender","type":"address","indexed":true,"internalType":"address"},{"name":"reason","type":"string","indexed":false,"internalType":"string"}],"anonymous":false},{"type":"event","name":"SwapExecuted","inputs":[{"name":"poolId","type":"bytes32","indexed":true,"internalType":"PoolId"},{"name":"sender","type":"address","indexed":true,"internalType":"address"},{"name":"zeroForOne","type":"bool","indexed":false,"internalType":"bool"},{"name":"amountSpecified","type":"int256","indexed":false,"internalType":"int256"},{"name":"timestamp","type":"uint256","indexed":false,"internalType":"uint256"}],"anonymous":false},{"type":"error","name":"AddressBlacklisted","inputs":[{"name":"account","type":"address","internalType":"address"}]},{"type":"error","name":"ENSThresholdViolation","inputs":[{"name":"sender","type":"address","internalType":"address"},{"name":"amount","type":"uint256","internalType":"uint256"},{"name":"threshold","type":"uint256","internalType":"uint256"}]},{"type":"error","name":"ENSWhitelistViolation","inputs":[{"name":"sender","type":"address","internalType":"address"},{"name":"target","type":"address","internalType":"address"}]},{"type":"error","name":"NotPoolManager","inputs":[]},{"type":"error","name":"ProtocolPaused","inputs":[]},{"type":"error","name":"Unauthorized","inputs":[]}],"bytecode":{"object":"0x60e03461011357601f61198438819003918201601f19168301916001600160401b0383118484101761011757808492606094604052833981010312610113578051906001600160a01b03821682036101135761006960406100626020840161012b565b920161012b565b60809290925260a05260c05269152d02c7e14af6800000600155600280546001600160a01b03191633179055604051611844908161014082396080518181816101f1015281816102760152818161035b01528181610631015281816106cd01528181610855015281816109d501528181610a2801528181610b1c01528181610d650152610eb6015260a0518181816105ef0152818161134c01526113e9015260c05181610cd20152f35b5f80fd5b634e487b7160e01b5f52604160045260245ffd5b51906001600160a01b03821682036101135756fe6080806040526004361015610012575f80fd5b5f3560e01c9081630f93c17414610efa5750806321d0ee7014610ea3578063259982e514610d525780632eb0865d14610d285780633e1c773214610d015780634232a3c314610cbd57806347e7a8f51461038a578063550b445414610c85578063575e24b414610ac55780635a3c983c14610a725780636c2bbe7e14610a155780636fe7e6eb1461099a578063704b6c021461095157806371b6aaac146108fb57806392bc31171461089f5780639f063efc14610842578063b47b2fb114610676578063b6a8b0fa1461061e578063c48e2b5f146105da578063c4e833ce14610471578063cb5ba91b14610446578063d060462e1461041c578063d1b6c40f146103c2578063da39e6791461038a578063dc4c90d314610346578063dc98354e14610245578063e1b4af69146101de578063ea509a64146101af578063f851a440146101875763fb3f3a7014610166575f80fd5b34610183575f366003190112610183576020600154604051908152f35b5f80fd5b34610183575f366003190112610183576002546040516001600160a01b039091168152602090f35b34610183576020366003190112610183576004355f526007602052602060ff60405f2054166040519015158152f35b34610183576101ec3661107a565b5050507f00000000000000000000000000000000000000000000000000000000000000006001600160a01b0316330392506102369150505760405163e1b4af6960e01b8152602090f35b63570c108560e11b5f5260045ffd5b346101835760e03660031901126101835761025e610f2e565b5060a036602319011261018357610273611054565b507f00000000000000000000000000000000000000000000000000000000000000006001600160a01b031633036102365760a06102af36611141565b205f818152600760205260409020805460ff191660011790556001600160a01b03602435908116908181036101835750604435906001600160a01b0382169081830361018357604080516001600160a01b0392831681529290911660208301527ffafdbdd88ac30f0aa936e576be61816ea751908540523fa81b80c4a406ad7bec925090a2604051636e4c1aa760e11b8152602090f35b34610183575f366003190112610183576040517f00000000000000000000000000000000000000000000000000000000000000006001600160a01b03168152602090f35b34610183576020366003190112610183576001600160a01b036103ab610f2e565b165f526006602052602060405f2054604051908152f35b34610183576020366003190112610183576103db610f2e565b6002546001600160a01b0316330361040e575f80546001600160a01b0319166001600160a01b0392909216919091179055005b6282b42960e81b5f5260045ffd5b34610183576020366003190112610183576004355f526004602052602060405f2054604051908152f35b34610183576020366003190112610183576002546001600160a01b0316330361040e57600435600155005b34610183575f366003190112610183575f6101a0604051610491816110d2565b8281528260208201528260408201528260608201528260808201528260a08201528260c08201528260e0820152826101008201528261012082015282610140820152826101608201528261018082015201526101c060206040516104f4816110d2565b60018152818101905f82526040810160018152606082015f8152608083015f815260a084015f815260c085016001815260e0860190600182526101008701925f84526101208801945f86526101408901965f88526101608a01985f8a526101a06101808c019b5f8d52019b5f8d526040519d8e916001835251151591015251151560408d015251151560608c015251151560808b015251151560a08a015251151560c089015251151560e08801525115156101008701525115156101208601525115156101408501525115156101608401525115156101808301525115156101a0820152f35b34610183575f366003190112610183576040517f00000000000000000000000000000000000000000000000000000000000000006001600160a01b03168152602090f35b346101835761062c3661107a565b5050507f00000000000000000000000000000000000000000000000000000000000000006001600160a01b03163303925061023691505057604051635b54587d60e11b8152602090f35b346101835761016036600319011261018357610690610f2e565b60a03660231901126101835760603660c3190112610183576101443567ffffffffffffffff8111610183576106c9903690600401610f58565b50507f00000000000000000000000000000000000000000000000000000000000000006001600160a01b031633036102365760a061070636611141565b2060e4355f811261083457805b825f52600360205260405f208054908282018092116108205755825f52600460205260405f2061074381546112f0565b905560c4358015158091036101835760609461079f91857fdf0c771b370b7f618d621a4f909cf4230d0fd6acfea58f01b7e17782d0e9cf6c60018060a01b038416988993604051908152886020820152426040820152a361163e565b808210159081610816575b506107c6575b6040805163b47b2fb160e01b81525f6020820152f35b7f606bbc07eeaaa4ff3ecec8ce9c07152b74726f563b9be1882d8aa03c75fbeac391604091855f526005602052825f2061080081546112f0565b905582519182526020820152a3808080806107b0565b90501515856107aa565b634e487b7160e01b5f52601160045260245ffd5b61083d816112e0565b610713565b346101835761085036610fea565b5050507f00000000000000000000000000000000000000000000000000000000000000006001600160a01b0316330393506102369250505057604080516327c18fbf60e21b81525f6020820152f35b346101835760203660031901126101835760606108c26108bd610f2e565b611247565b91906020604051938492151583526040828401528051918291826040860152018484015e5f828201840152601f01601f19168101030190f35b34610183576020366003190112610183576060600435805f52600760205260ff60405f20541690805f52600360205260405f2054905f52600460205260405f205490604051921515835260208301526040820152f35b346101835760203660031901126101835761096a610f2e565b600254906001600160a01b038216330361040e576001600160a01b03166001600160a01b03199190911617600255005b3461018357610100366003190112610183576109b4610f2e565b5060a0366023190112610183576109c9611054565b506109d261106a565b507f00000000000000000000000000000000000000000000000000000000000000006001600160a01b0316330361023657604051636fe7e6eb60e01b8152602090f35b3461018357610a2336610fea565b5050507f00000000000000000000000000000000000000000000000000000000000000006001600160a01b031633039350610236925050505760408051633615df3f60e11b81525f6020820152f35b346101835760203660031901126101835760a0610a8d610f2e565b60ff610aa1610a9b8361163e565b926116cf565b93926040929192519586526020860152604085015216606083015215156080820152f35b346101835761014036600319011261018357610adf610f2e565b60a03660231901126101835760603660c3190112610183576101243567ffffffffffffffff811161018357610b18903690600401610f58565b50507f00000000000000000000000000000000000000000000000000000000000000006001600160a01b031633036102365760a0610b5536611141565b20610b5e61134a565b610c1657610b6b826113e7565b610bac575f546001600160a01b0316610b9c575b60606040516315d7892d60e21b81525f60208201525f6040820152f35b610ba591611450565b8080610b7f565b9060018060a01b031680917f453fc6153bb980142913a181cc645d3929ac5c21bd3d42ce343eae956a964a6f606060405160208152601260208201527114d95b99195c88189b1858dadb1a5cdd195960721b6040820152a363daf49ab960e01b5f5260045260245ffd5b7f453fc6153bb980142913a181cc645d3929ac5c21bd3d42ce343eae956a964a6f6040519260018060a01b03169280610c738160609060208152600f60208201526e141c9bdd1bd8dbdb081c185d5cd959608a1b60408201520190565b0390a3634427925560e01b5f5260045ffd5b34610183576020366003190112610183576001600160a01b03610ca6610f2e565b165f526005602052602060405f2054604051908152f35b34610183575f366003190112610183576040517f00000000000000000000000000000000000000000000000000000000000000006001600160a01b03168152602090f35b34610183575f366003190112610183575f546040516001600160a01b039091168152602090f35b34610183576020366003190112610183576004355f526003602052602060405f2054604051908152f35b3461018357610d6036610f86565b5050507f00000000000000000000000000000000000000000000000000000000000000006001600160a01b0316330361023657610d9b61134a565b610e3857610da8826113e7565b610dbe5760405163259982e560e01b8152602090f35b610dcb60a09136906111c8565b209060018060a01b031680917fc6992dccee006b1e3c5a405ee014cff8818c92b75ffcccfe3711eb2bef4362f76060604051602081526014602082015273141c9bdd9a59195c88189b1858dadb1a5cdd195960621b6040820152a363daf49ab960e01b5f5260045260245ffd5b610e4560a09136906111c8565b207fc6992dccee006b1e3c5a405ee014cff8818c92b75ffcccfe3711eb2bef4362f76040519260018060a01b03169280610c738160609060208152600f60208201526e141c9bdd1bd8dbdb081c185d5cd959608a1b60408201520190565b3461018357610eb136610f86565b5050507f00000000000000000000000000000000000000000000000000000000000000006001600160a01b03163303915061023690505760405163021d0ee760e41b8152602090f35b34610183576020366003190112610183576020906001600160a01b03610f1e610f2e565b165f526005825260405f20548152f35b600435906001600160a01b038216820361018357565b35906001600160a01b038216820361018357565b9181601f840112156101835782359167ffffffffffffffff8311610183576020838186019501011161018357565b90610160600319830112610183576004356001600160a01b0381168103610183579160a060231982011261018357602491608060c3198301126101835760c491610144359067ffffffffffffffff821161018357610fe691600401610f58565b9091565b906101a0600319830112610183576004356001600160a01b0381168103610183579160a060231982011261018357602491608060c3198301126101835760c49161014435916101643591610184359067ffffffffffffffff821161018357610fe691600401610f58565b60c435906001600160a01b038216820361018357565b60e435908160020b820361018357565b610120600319820112610183576004356001600160a01b0381168103610183579160a06023198301126101835760249160c4359160e43591610104359067ffffffffffffffff821161018357610fe691600401610f58565b6101c0810190811067ffffffffffffffff8211176110ef57604052565b634e487b7160e01b5f52604160045260245ffd5b60a0810190811067ffffffffffffffff8211176110ef57604052565b90601f8019910116810190811067ffffffffffffffff8211176110ef57604052565b60a0906023190112610183576040519061115a82611103565b816024356001600160a01b03811681036101835781526044356001600160a01b038116810361018357602082015260643562ffffff811681036101835760408201526084358060020b810361018357606082015260a435906001600160a01b03821682036101835760800152565b91908260a0910312610183576040516111e081611103565b80926111eb81610f44565b82526111f960208201610f44565b6020830152604081013562ffffff811681036101835760408301526060810135908160020b820361018357606083019190915260800135906001600160a01b03821682036101835760800152565b61124f61134a565b6112ad5761125c906113e7565b6112775760019060405161127160208261111f565b5f815290565b5f9060405161128760408261111f565b60168152751059191c995cdcc81a5cc8189b1858dadb1a5cdd195960521b602082015290565b505f906040516112be60408261111f565b6012815271141c9bdd1bd8dbdb081a5cc81c185d5cd95960721b602082015290565b600160ff1b8114610820575f0390565b5f1981146108205760010190565b3d15611338573d9067ffffffffffffffff82116110ef576040519161132d601f8201601f19166020018461111f565b82523d5f602084013e565b606090565b5190811515820361018357565b7f00000000000000000000000000000000000000000000000000000000000000006001600160a01b038116156113e2575f809160405160208101906358c3de9360e11b82526004815261139e60248261111f565b51915afa6113aa6112fe565b90806113d6575b6113ba57505f90565b6020818051810103126101835760206113d3910161133d565b90565b506020815110156113b1565b505f90565b7f0000000000000000000000000000000000000000000000000000000000000000906001600160a01b0382161561144a575f9182916040516020810191636aba4ea160e11b835260018060a01b031660248201526024815261139e60448261111f565b50505f90565b611459816116cf565b9091509291921580611637576060857f3f3f5447c2528f4cb1a05f367236455236b554fae84ad4c5536d70924da919c59560029460018060a01b038716978894859260ff604051918683521697886020830152156040820152a260e4355f811261162857905b8015158061161f575b6115cf575b50505050146114db57505050565b6024356001600160a01b038116919082810361018357506044356001600160a01b0381169190828103610183575061151d826115178584611788565b92611788565b9015809181156115c6575b50611534575050505050565b839495505f146115be5750925b7f440241cf11125a728d6087af095896df6bb17eb04dfd1ac9f9cbc8869b72617f60806040519560018060a01b03169586815260406020820152601a60408201527f546f6b656e206e6f7420696e20454e532077686974656c6973740000000000006060820152a3630516a6a760e51b5f5260045260245260445ffd5b905092611541565b9050155f611528565b7f7c778b18b6ba7d98eb651c7f54e95e7f657faac8a1309c0aa4bd97d6c1089a3991604091855f526006602052825f2061160981546112f0565b905582519182526020820152a383855f806114cd565b508082116114c8565b611631906112e0565b906114bf565b5050505050565b5f546001600160a01b03169081156116c7575f9182916040516020810191630f12ee2d60e31b835260018060a01b031660248201526024815261168260448261111f565b51915afa61168e6112fe565b90806116bb575b6116a1575b5060015490565b6020818051810103126101835760200151801561169a5790565b50602081511015611695565b505060015490565b5f546001600160a01b031690811561177c575f9182916040516020810191631ba135e760e01b835260018060a01b031660248201526024815261171360448261111f565b51915afa61171f6112fe565b9080611770575b61173557505f905f905f905f90565b60808180518101031261018357602081015160408201519260608301519260ff84168403610183576080611769910161133d565b9193929190565b50608081511015611726565b50505f905f905f905f90565b5f549091906001600160a01b0316801561180657604051635b59a93960e11b602082019081526001600160a01b0394851660248301529290931660448085019190915283525f928392906117dd60648261111f565b51915afa6117e96112fe565b90806117fa575b6113ba5750600190565b506020815110156117f0565b50505060019056fea26469706673582212202fb99fe605fd38dc0214e754217080ffa179b93043f12194e6e9c62247fb920964736f6c634300081a0033","linkReferences":{}},"methodIdentifiers":{"admin()":"f851a440","afterAddLiquidity(address,(address,address,uint24,int24,address),(int24,int24,int256,bytes32),int256,int256,bytes)":"9f063efc","afterDonate(address,(address,address,uint24,int24,address),uint256,uint256,bytes)":"e1b4af69","afterInitialize(address,(address,address,uint24,int24,address),uint160,int24)":"6fe7e6eb","afterRemoveLiquidity(address,(address,address,uint24,int24,address),(int24,int24,int256,bytes32),int256,int256,bytes)":"6c2bbe7e","afterSwap(address,(address,address,uint24,int24,address),(bool,int256,uint160),int256,bytes)":"b47b2fb1","beforeAddLiquidity(address,(address,address,uint24,int24,address),(int24,int24,int256,bytes32),bytes)":"259982e5","beforeDonate(address,(address,address,uint24,int24,address),uint256,uint256,bytes)":"b6a8b0fa","beforeInitialize(address,(address,address,uint24,int24,address),uint160)":"dc98354e","beforeRemoveLiquidity(address,(address,address,uint24,int24,address),(int24,int24,int256,bytes32),bytes)":"21d0ee70","beforeSwap(address,(address,address,uint24,int24,address),(bool,int256,uint160),bytes)":"575e24b4","canSwap(address)":"92bc3117","defaultLargeSwapThreshold()":"fb3f3a70","ensSecurityProfile()":"3e1c7732","getHookPermissions()":"c4e833ce","getPoolStats(bytes32)":"71b6aaac","getUserLargeSwapCount(address)":"550b4454","getUserSecuritySettings(address)":"5a3c983c","getUserThresholdExceedances(address)":"da39e679","guardianRegistry()":"4232a3c3","poolManager()":"dc4c90d3","poolSwapCount(bytes32)":"d060462e","poolSwapVolume(bytes32)":"2eb0865d","registeredPools(bytes32)":"ea509a64","securityMiddleware()":"c48e2b5f","setAdmin(address)":"704b6c02","setDefaultLargeSwapThreshold(uint256)":"cb5ba91b","setENSSecurityProfile(address)":"d1b6c40f","userLargeSwapCount(address)":"0f93c174","userThresholdExceedances(address)":"47e7a8f5"},"id":34}